:040000002AEF00F0F3
:10000800F2B023EF00F09EB211EF00F09EB018EFAF
:1000180000F0F2B41DEF00F011009E92CA947DEC3E
:1000280000F048EC01F011009E90CD907AEC00F0C1
:100038001100F29462EC00F056EC01F0110081CF4F
:1000480011F00000F290BCEC00F01100926A956A81
:10005800946A9368006B016B026B036B046B056B0E
:10006800066B076B116B126B086B096B0A6B0B6BDA
:100078000C6B0F6B136B0D6B146B106B010E0E6F0B
:10008800060E086F040E0B6F000E0A6FF28EF28CCC
:10009800F2869D829D80F28AF2909E929E90F294C2
:1000A80048EC01F0FFD7000E0A6F62EC00F053EC49
:1000B80001F056EC01F01200D59E12000B510A61B6
:1000C80072EC00F0E86A0A6574EC00F0E86A0A630A
:1000D80077EC00F04CEC01F00A2B12000A6B1200CE
:1000E800030E8B6E1200010E8B6E1200000E8B6ECB
:1000F80012000EC00FF00F4F91EC00F00F4F9BEC69
:1001080000F00F4FA5EC00F00F4FAFEC00F00E2BF6
:10011800050E0E61B9EC00F012008C6A010E806EBB
:100128000DA1B3EC01F00DB1B6EC01F012008C6A30
:10013800020E806E0DA1B6EC01F00DB1A4EC01F039
:1001480012008C6A040E806E0DA1B6EC01F00DB1A0
:10015800A1EC01F012008C6A080E806E0DA1AEECC5
:1001680001F00DB1A9EC01F01200010E0E6F1200A2
:1001780027EC01F004C0E8FF0063D5EC00F005C0EF
:10018800E8FF0163D9EC00F006C0E8FF0263DDEC8C
:1001980000F007C0E8FF0363E1EC00F011C012F0C3
:1001A80012000065E5EC00F012000165F8EC00F0C3
:1001B8001200026509EC01F0120003651AEC01F067
:1001C8001200010E0E6F0DC014F014A1F0EC00F037
:1001D80014B1F4EC00F012000D8157EC00F012009D
:1001E8000D9160EC00F012000DA1FFEC00F00DB1D4
:1001F80004EC01F01200090E08611200082B12002D
:10020800080E0B6112000B2B12000DA110EC01F06F
:100218000DB115EC01F01200010E08651200080777
:100228001200020E0B6512000B0712000DA121EC43
:1002380001F00DB124EC01F01200060E086F120057
:10024800040E0B6F120011A9006B11B9006911ABF4
:10025800016B11BB016911AD026B11BD026911AFD0
:10026800036B11BF036912A9046B12B9046912ABBD
:10027800056B12BB056912AD066B12BD066912AF9C
:10028800076B12BF07691200CC6A050ECA6E12000E
:10029800E70ECF6E960ECE6E310ECD6E1200830E27
:1002A800D56E120008C013F0134F74EC01F0134F11
:1002B80079EC01F0134F7EEC01F0134F83EC01F061
:1002C800134F88EC01F0134F8DEC01F0134F92ECB3
:1002D80001F0134F97EC01F0134F9CEC01F0120062
:1002E8000B0ED76EDC0ED66E1200240ED76E460E9D
:1002F800D66E12003C0ED76EB00ED66E1200550E9A
:10030800D76E1A0ED66E12006D0ED76E840ED66E8C
:100318001200850ED76EEE0ED66E12009E0ED76EA8
:10032800580ED66E1200B60ED76EC20ED66E1200DA
:10033800CF0ED76E2C0ED66E1200400E8C6E1200A9
:100348000AC009F0B9EC01F012000BC009F0B9ECD1
:1003580001F0120008C009F0B9EC01F01200730EA8
:100368008C6E1200000E8C6E1200094F060E094F9B
:100378005B0E094F4F0E094F660E094F6D0E094F60
:100388007D0E094F070E094F7F0E094F6F0E8C6EB9
:02039800120051
:020000040030CA
:0300010006181EC0
:020005008181F7
:060008000FC00FE00F40E5
:00000001FF
